:1034A50075BA8090FE0374C0F090FE03E030E0F939
:0E34B50090FE01E4F090FE0004F0E4F5BA226F
:1033D800E4F594759308759208759104F596F5953A
:1033E800F5B2F5B1F5B4F5B375CA28F5C9F5CCF55C
:0E33F800CBF5E2F5E175A20475BA80C2CA22D7
:0D361300007F1F7E717D1DDDFEDEFCDFFAF5
:013620002287
:0E35F50000007F3D7EE17D3EDDFEDEFCDFFA64
:0136030022A4
:103481009001407410F07993E4FDFCC3ED9FEC9E34
:103491005011D9FE900140E014F070F60DBD00010D
:0334A1000C80E8B4
:0134A4002205
:0D362100007F077E177D69DDFEDEFCDFFA0D
:01362E002279
:0636730000007F57DFFE9E
:01367900222E
:103131002B2B2B0041542B5453463D30370D0A00A5
:1031410041542B5253463D30370D0A0041542B5404
:103151005052454D3D303032380D0A0041542B520A
:103161005052454D3D303032380D0A0041542B53F9
:1031710049503D30310D0A0041542B5446524551BE
:103181003D31433339303936300D0A0041542B5229
:10319100465245513D31453231353136300D0A0007
:0631A1004154540D0A0028
:103368004101700041017100410172004101730087
:04337800410174009B
:1035B000759A5075D7C875D6FEE4F5B575B6017520
:0335C0008E142244
:10354400759A5075D7E675D6FFE4F5B575B601756D
:063554008E1475AF012288
:030043000228A4EC
:0B28A400C0E0C083C082C0D075D0101F
:1028AF00E59A20E003022A7F900171E0900170F019
:1028BF00900172E0900171F0A3E59BF0900170E040
:1028CF0064A57048A3E0FF64B26028EF64B360238F
:1028DF00EF64B5601EEF64B66019EF64B76014EF74
:1028EF0064B8600FEF64BB600AEF64BD6005EF640E
:1028FF00BE7019900171E090017EF0900172E0902E
:10290F00017FF09001737402F0022A7C90017EE047
:10291F00FF64B2602BEF64B36026EF64B56021EF04
:10292F0064B6601CEF64B76017EF64B86012EF64B1
:10293F00BB600DEF64BD6008EF64BE6003022A7CCC
:10294F00900172E0FFA3E0247EF582E43401F58369
:10295F00EFF0900173E004F090017FE02403FFE4B7
:10296F0033FE900173E06F7001EE6003022A7CF07A
:10297F00900175F0900174F090017FE0F92402FD51
:10298F00E433FC900174E0FEC39DEC6480F8748026
:10299F0098501A747E2EF582E43401F583E0FE9090
:1029AF000175E02EF0900174E004F080CB9001757A
:1029BF00E024A5F090017EE0FE900176F0A3740173
:1029CF00F0A37410F0900177E0FD900176E02D24D4
:1029DF0010900179F0A3EEF0A37401F0A37411F03D
:1029EF0090017BE0FF90017AE02F241190017DF0A0
:1029FF00748029F582E43401F583E0FF900175E0DE
:102A0F006F7035D21290017EE0FF64B66023EF64E1
:102A1F00B3601EEF64B56019EF64B76014EF64B86C
:102A2F00600FEF64BB600AEF64BD6005EF64BE70BA
:102A3F003CC2A175AF008035C212900174E4F090D2
:102A4F00017FE02403FFE433FE900174E0FDC39F98
:102A5F00EE6480F87480985014747E2DF582E434FF
:102A6F0001F583E4F0900174E004F080D2539AFEF4
:092A7F00D0D0D082D083D0E03227
:1035C300E4F5AF8F9BE59A30E1FB539AFD75AF01AC
:0135D30022D5
:0B34060090014CEBF0A3EAF0A3E9F00A
:10341100E4FEEEC39D501A90014CE0FBA3E475F06D
:10342100011219C4A9F0FA121905FF1235C30E8051
:01343100E1B9
:013432002277
:1035D400E4F5AF8F9BE59A30E1FB539AFD75AF019B
:0135E40022C4
:1031A700C2A31235441236217BFF7A317931121CC2
:1031B700B01236217BFF7A317935121CB0123621D5
:1031C7007BFF7A317941121CB01236217BFF7A31AD
:1031D700794D121CB01236217BFF7A31795D121CB2
:1031E700B01236217BFF7A31796D121CB01236216D
:1031F7007BFF7A317979121CB01236217BFF7A3145
:10320700798D121CB01236217BFF7A3179A1121CFD
:04321700B0023621AA
:030003000236883A
:06368800D21375AF003201
:07362F00D2A4123636D2A529
:07363600000000000000226B
:0D363D0012362FC2A4123636C2A502363650
:0A365700C2A4123631D2A4023636A6
:0A366100C2A4123631C2A5023636AB
:08366B0012362FC2A50236360B
:0A355A00AD0712363D7FA21234E0E7
:0C35640012362FA2A492D5C2A502363662
:1034E0007E08EF30E704D2A48002C2A4EF25E0FFFB
:0A34F000123631C2A5123636DEE8AE
:0134FA0022AF
:1034FB007E08D2A4D2A5123636EF25E0FF30A40108
:08350B000FC2A5123636DEECFA
:013513002295
:1033A80012355A20D527AF051234E012356420D5DE
:1033B8001C121905FF1234E0740129F9E43AFA12D3
:1033C800356420D508900150E014F070E4023657B7
:1033220012355A20D53DAF051234E012356420D54E
:103332003212363D7FA31234E012356420D52412B6
:1033420034FBEF12194B740129F9E43AFA90015057
:10335200E064016003123661900150E014F070DF06
:0633620012366B02365723
:1032D200E4900192F0A37402F0E4A3F0A37419F055
:1032E200A37423F0A37429F0A37404F0A37407F069
:1032F200A37421F0A37480F0A3F0A3F0A3F0E4A3DD
:10330200F0A37403F0E4A3F07B017A0179929001B7
:10331200507410F0E4FF1233A875B80175B701229A
:07367A0075DE2F75BC8222F2
:1035700043BC400000E5BC30E5FB53BCDFAFBDEF12
:05358000FEADBEEDFFF1
:013585002223
:10000E00E49001A2F0A3F0FBFA1235709001A3E088
:10001E002FF09001A2E03EF00BBB00010AEB640949
:10002E004A70E69001A2E0FEA3E0FF7C007D0A028A
:02003E00196F38
:1034330075BA8090FFF2E4F090FFF07412F0A37479
:10344300C0F090FF00E4F0A3F0A37412F0A374C0E3
:07345300F0A3F075FE8022DA
:10345A0075BA8090FFF2E4F090FFF07412F0A37452
:10346A00C0F090FF00E4F0A3F0A3EEF0A3EFF0A306
:07347A0074C0F075FE802212
:0D364A00E4F5C7F5C5F5C675C380F5C422CB
:10352D0075C78375C5018FC4EEF5C375C65A75C6CB
:07353D00A500AFC202364AEF
:1035140075C78375C5028FC4EEF5C3AF058FC27539
:09352400C65A75C6A50002364A1C
:1035860075C78375C5038FC4EEF5C375C65A75C670
:05359600A50002364A09
:0736810075DE2F75BC8B22E2
:0F35E50043BC400000E5BC30E5FB53BCDFAFBE8C
:0135F40022B4
:07337C00C114420000000033
:10359B00538E7F5389F0758A38758CFFC28DD28C10
:0535AB00D2A9D2AF22FD
:03000B0002321BA3
:0D321B00C0E0C0F0C083C082C0D075D008F4
:10322800123570AC0EAD0F900001E025E0FF900064
:1032380000E033FE74022FF58274003EF583ECF053
:10324800A3EDF0900001E004F07006900000E004A7
:10325800F0900000E07004A3E06464700A9000003D
:09326800F0A3F0C2A9D214C28D3A
:0B327100D0D0D082D083D0F0D0E0326B
:0A2A88007B017A0079027D647C0076
:102A9200900144EBF0A3EAF0A3E9F0A3ECF0A3ED7C
:012AA200F043
:102AA300E4A3F0A3F0A3121BAC00000000E4900128
:102AB3004FF0A3F0900147E0FEA3E0FF90014FE049
:102AC300FCA3E0FDC39FEC9E506DED25E0FFEC33CE
:102AD300FE900144E0FBA3E0FAA3E0F98F828E832A
:102AE3001219DAFFAEF0D39400EE94085020C3E439
:102AF3009FFD74089EFC900150E025E0FF90014F7C
:102B0300E0338F82F583EC8DF0121A5F8018900109
:102B130050E025E0FF90014FE0338F82F58374F896
:102B230075F000121A12900150E004F070869001C3
:102B33004FE004F0022AB7E490014FF0A3F09001B4
:102B430047E0FEA3E0FF90014FE0FCA3E0FDC39F3D
:102B5300EC9E507CED25E0FFEC33FE900144E0FB5E
:102B6300A3E0FAA3E0F98F828E831219DAFDACF0A9
:102B7300E4121402C004C005C006C0079001551238
:102B83001BAC40000000D007D006D005D004122BA8
:102B9300FDC004C005C006C00790014BE0FCA3E0E4
:102BA300FDA3E0FEA3E0FFE41213FDD003D002D0A7
:102BB30001D00012130C12143B90014B121BA09076
:102BC3000150E004F0700690014FE004F0022B4145
:102BD300E47B64FAF9F890014BE0FCA3E0FDA3E089
:102BE300FEA3E0FF121AC8E41213FD122F6312149E
:092BF3003B900149EEF0A3EFF064
:012BFC0022B6
:0E360400E4FFFE12359B3014FD122A88C2141A
:013612002295
:10327C00E4900140F0A3F0A3F0A3F0900140F0A380
:10328C00F012359B3014FD122A88900143E02FF088
:10329C00900142E03EF0C214900141E004F070064F
:1032AC00900140E004F0C3900141E094059001408E
:1032BC00E06480948040CA900142E0FEA3E0FF7C71
:0632CC00007D0502196FF0
:103383004200EF005A44011AB20165184400CFB25B
:1033930001671A4200F10000440116B201FEB14276
:0433A30000F3000033
:10004600E490012AF0A3F0C2121234A51233D8129A
:100056003433123681123544D288D2A8D2AFE49016
:100066000122F0A3F0D2CDC209C20AC20DC213D238
:100076000CD20EC210D293C2149000D5F0A37464B1
:10008600F0C20FC20BC212E5805420C413540725D8
:10009600E025E0FFE5805410C4540F75F008A42F46
:1000A600FFE5805440C41313540325E02FFFE58079
:1000B6005480C413131354012F900129F0D2CBE4BA
:1000C600900127F0A3F0900127E0FEA3E0FFC39480
:1000D60014EE9400501D74DB2FF58274003EF583F8
:1000E60074FFF0900128E004F070DB900127E00433
:1000F600F080D31235E5900124EFF0C39464748048
:1001060094805004E02464F012367A1234C39001CD
:1001160024E075F002A4FFAEF01234811232D2123E
:10012600327C90012AEEF0A3EFF030930FC2A2903A
:10013600012AE0C313F0A3E013F0801A209317906E
:10014600012AE0FEA3E0FF7C007D1512196F9001E5
:100156002AEEF0A3EFF09000CA74BAF0A37402F08E
:1001660090012AE0FCA3E0FDEC9000CCF0AF05A3E3
:10017600EFF09000CBE0FE9000CAE02EFE9000CC9F
:10018600E02E2F9000CEF07F007E0812352DEFF482
:10019600700E1231A7D2A37D017F007E081235149E
:1001A60075C12743C110200903020ED1D2A2D2A1E4
:1001B600B2C21236137B017A0079D39001507402D1
:1001C600F07F031233229000D3E0547FF0A3E05473
:1001D6003FF09000D3E05401700C300E09C2CB12F0
:1001E6003673D2CBC20E9000D3E054016005200EC8
:1001F60002D20E201203020B5EC21290017EE06450
:06020600B260030206A233
:10020C0090012CF0D2107B017A0079D390015074BC
:10021C0002F07F031233229000D3E0547FF0A3E06E
:10022C00543FF043C110300D3D90011174B2F0A356
:10023C007402F0A374FBF09000D5A3E0FF900114BE
:10024C00F0900112E0FE900111E02EFE900113E0FF
:10025C002E2F900115F07B017A0179117D05123456
:10026C0006C20D020664300A107B017A0179167DF4
:10027C0004123406C20A020664300F3D9001117458
:10028C00B2F0A37402F0A374FDF09000D5A3E0FFCC
:10029C00900114F0900112E0FE900111E02EFE90FE
:1002AC000113E02E2F900115F07B017A0179117D5D
:1002BC0005123406C20F020664300B3D9001117416
:1002CC00B2F0A37402F0A374FCF09000D5A3E0FF8D
:1002DC00900114F0900112E0FE900111E02EFE90BE
:1002EC000113E02E2F900115F07B017A0179117D1D
:1002FC0005123406C20B0206647F007E0412352DF3
:10030C00EFF460030205B59000DBE0F47003020526
:10031C00739000D774B2F0A37401F09000D5A3E0F1
:10032C00FF9000D9F09000D8E0FE9000D7E02E2F7F
:10033C009000DAF012327C900125EEF0A3EFF090F1
:10034C00011EE075F003A424D9F582E43400F58392
:10035C00E0FF9000D4E0FED39F5022EE6F600302CA
:10036C0003ED90011EE075F003A424D8F582E4346B
:10037C0000F583E0FF9000D3E0D39F406490011E12
:10038C00E075F003A424DAF582E43400F583E0D3BD
:10039C0094007480948040259000EFE0FEA3E0FF71
:1003AC00D3900126E09F900125E09E7B0140077AC7
:1003BC000079D702065F7A01791A02065F9000EF86
:1003CC00E0FEA3E0FFD3900126E09F900125E09E84
:1003DC007B0150067A0079D780047A0079CF020627
:1003EC005F9000DCE0FF9000D4E0FED39F5016EE4F
:1003FC006F60030206649000DBE0FF9000D3E09F87
:10040C00500302066490011EE075F003A424D9F594
:10041C0082E43400F583E0FF9000D4E0FEC39F40FB
:10042C0025EE6F600302066490011EE075F003A4D4
:10043C0024D8F582E43400F583E0FF9000D3E0C3C8
:10044C009F4003020664E490012CF090011EE0141E
:10045C00FF90012CE0FEC39F4003020664EE75F092
:10046C0003A424DCF582E43400F583E0FF9000D48F
:10047C00E0FED39F5025EE6F600302056A90012CBD
:10048C00E075F003A424DBF582E43400F583E0FF8F
:10049C009000D3E0D39F500302056A90012CE075C5
:1004AC00F003A424DFF582E43400F583E0FF900030
:1004BC00D4E0FEC39F4025EE6F600302056A9001F5
:1004CC002CE075F003A424DEF582E43400F583E01F
:1004DC00FF9000D3E0C39F400302056A90012CE01B
:1004EC0075F003A424DDF582E43400F583E0FFD33A
:1004FC00940074809480402CD3EF94647480948026
:10050C0050229000EFE0FEA3E0FF900126E09F90C8
:10051C000125E09E7B0140067A0079D7803B7A0169
:10052C00791A803590012CE075F003A424DDF58256
:10053C00E43400F583E070269000EFE0FEA3E0FFCA
:10054C00D3900126E09F900125E09E7B0140067A26
:10055C000079CF80047A0079D77D0412340690019B
:10056C002CE004F00204579000D774B2F0A374018D
:10057C00F0A37464F09000D8E0FF9000D7E02F2433
:10058C00649000DAF09000EFE0FEA3E0FFD390015E
:10059C0026E09F900125E09E7B0140067A0079D7EA
:1005AC0080047A01791A02065F7F007E0412352DD1
:1005BC00EFF470030206647F007E0412352D7E007A
:1005CC009000D5EEF0A3EFF0A374B2F0A37401F099
:1005DC00A3EFF09000D8E0FE9000D7E02E2F900013
:1005EC00DAF012327C900125EEF0A3EFF09000D5FA
:1005FC00E07002A3E070239000EFE0FEA3E0FFD3D5
:10060C00900126E09F900125E09E7B0150067A0028
:10061C0079D780047A0079CF80399000D5E0FEA399
:10062C00E0FFD39400EE9400402ED3EF9464EE944C
:10063C000050259000EFE0FEA3E0FF900126E09F24
:10064C00900125E09E7B0150067A01791A80047A8C
:10065C000079D77D04123406E4900127F0A3F090C2
:10066C00017FE02403FFE433FE900127E0FCA3E0CC
:10067C00FDC39FEC9E4003020B5E747E2DF58274CD
:10068C00013CF583E4F0900128E004F070D1900176
:06069C0027E004F080C914
:1006A20090017EE064B37072900180E0FF7E00C32F
:1006B20074809480400AD3EF9464748094804005DF
:1006C200EFF44E700C900180E0FF7D011225268030
:1006D2000B7B017A01797A7D04123406E4900127BA
:1006E200F0A3F090017FE02403FFE433FE900127A2
:1006F200E0FCA3E0FDC39FEC9E4003020B1E747E50
:100702002DF58274013CF583E4F0900128E004F0B9
:1007120070D1900127E004F080C990017EE064B5B9
:0507220060030207AFB7
:10072700900127F0A3F090017FE0FF90011FE0C345
:100737009F502F900127E0FCA3E0FD2480F58274F1
:10074700013CF583E0FE742C2DF58274013CF583A2
:10075700EEF0900128E004F070CC900127E004F05F
:1007670080C49001447401122E8CE4900127F0A3F9
:10077700F090017FE02403FFE433FE900127E0FCC3
:10078700A3E0FDC39FEC9E501C747E2DF58274017F
:100797003CF583E4F0900128E004F070D490012741
:0507A700E004F080CC2D
:0E07AC00020B1E90017EE064B660030208435B
:1007BA00900127F0A3F090017FE0FFFD900127E070
:1007CA00FAA3E0FBC39DEA9400502874802BF582BB
:1007DA0074013AF583E0FE742C2BF58274013AF524
:1007EA0083EEF0900128E004F070CB900127E0043A
:1007FA00F080C390014474011220C8E4900127F0EC
:10080A00A3F090017FE02403FFE433FE900127E088
:10081A00FCA3E0FDC39FEC9E501C747E2DF58274F0
:10082A00013CF583E4F0900128E004F070D49001D3
:06083A0027E004F080CC71
:10084000020B1E90017EE064B760030208EBA3E098
:100850006408704E90011FF090011FE0C39406746D
:100860008094805021E0FF2480F582E43401F583F8
:10087000E0FE740B2FF582E43401F583EEF0900175
:100880001FE004F080D27B017A01790B9001507453
:1008900007F07F021233A8D20AC2A3123613D2A3E2
:1008A000800B7B017A01797A7D04123406E4900191
:1008B00027F0A3F090017FE02403FFE433FE9001D2
:1008C00027E0FCA3E0FDC39FEC9E501C747E2DF539
:1008D0008274013CF583E4F0900128E004F070D4C8
:1008E000900127E004F080CC020B1E90017EE064B2
:1008F000B8705EFF7E06123586900180E0FDF460E0
:10090000077F007E061235147B017A0179767D041B
:10091000123406E4900127F0A3F090017FE0240355
:10092000FFE433FE900127E0FCA3E0FDC39FEC9EB3
:10093000501C747E2DF58274013CF583E4F0900127
:1009400028E004F070D4900127E004F080CC020B82
:100950001E90017EE064BB7070FF7E0612352D9004
:100960000180E0B50725A3E0FF7E00C3748094807A
:10097000400AD3EF9464748094804005EFF44E7085
:100980000A900181E0FFE4FD122526E4900127F0A2
:10099000A3F090017FE02403FFE433FE900127E001
:1009A000FCA3E0FDC39FEC9E501C747E2DF5827469
:1009B000013CF583E4F0900128E004F070D490014C
:1009C00027E004F080CC020B1E90017EE064BD6045
:1009D00003020A75FF7E0612352D900180E06F70CC
:0109E00056C0
:1009E100900127F0A3F090017FE0FF24FFFDE434A4
:1009F100FFFC900127E0FAA3E0FBC39DEA9C50288D
:100A010074812BF58274013AF583E0FE742C2BF589
:100A11008274013AF583EEF0900128E004F070C68B
:100A2100900127E004F080BEEF14FFE4900144122E
:060A31002E8CD20DC20F55
:100A3700E4900127F0A3F090017FE02403FFE43363
:100A4700FE900127E0FCA3E0FDC39FEC9E501C74C1
:100A57007E2DF58274013CF583E4F0900128E004D3
:100A6700F070D4900127E004F080CC020B1E9001B7
:100A77007EE064BE6003020B23FF7E0612352D90D5
:060A87000180E06F7056D3
:100A8D00900127F0A3F090017FE0FF24FFFDE434F7
:100A9D00FFFC900127E0FAA3E0FBC39DEA9C5028E0
:100AAD0074812BF58274013AF583E0FE742C2BF5DD
:100ABD008274013AF583EEF0900128E004F070C6DF
:100ACD00900127E004F080BEEF14FFE49001441282
:060ADD0020C8D20DC20F7B
:100AE300E4900127F0A3F090017FE02403FFE433B7
:100AF300FE900127E0FCA3E0FDC39FEC9E501C7415
:100B03007E2DF58274013CF583E4F0900128E00426
:100B1300F070D4900127E004F080CC75AF01803BE6
:100B2300E4900127F0A3F090017FE02403FFE43376
:100B3300FE900127E0FCA3E0FDC39FEC9E501C74D4
:100B43007E2DF58274013CF583E4F0900128E004E6
:100B5300F070D4900127E004F080CC20130302014D
:010B6300A9E8
:100B640090012C7402F07B017A017920900150F0FD
:100B74007F03123322123621900120E0547FF0A328
:100B8400E0543FF0C2131236137B017A01792C90A2
:100B940001507401F0FF1233A8900120E0600302B9
:100BA4000D77A3E06003020D77C2A2123613E4FFAF
:100BB400FE123586E4900122F0A3F0900122E0FEBB
:100BC400A3E0FFC39414EE9400502CE42FFFEE3402
:100BD40002FE12352D900122E0FCA3E024F5F582FB
:100BE40074003CF583EFF0900123E004F070CC90A6
:100BF4000122E004F080C4E4900122F0A3F090010B
:100C040022E0FEA3E0FF24F5F58274003EF583E0C4
:100C1400FD123514900123E004F07006900122E0E7
:100C240004F0C3900123E09414900122E094004066
:100C3400CDE4900122F0A3F0900122E0FEA3E0FFB6
:100C4400C39414EE9400502512352D900122E0FC3B
:100C5400A3E024DBF58274003CF583EFF0900123DC
:100C6400E004F070D3900122E004F080CBE4900122
:100C740022F0A3F0900122E0FEA3E0FF24DBF58242
:100C840074003EF583E0F46010900123E004F070FA
:100C9400E3900122E004F080DB7C007D0312196FF5
:100CA40090011EEFF07F007E0412352DEFF46003F7
:100CB400020D3AD20F9000DBE0F460629000DDE0B8
:100CC400FF7E009000D5EEF0A3EFF07004C2CD805B
:100CD400149000D5E0FEA3E0FF7C007D3012195D86
:100CE40012345AD2CD90011EE0C3940274809480D1
:100CF40040189000DEE09000F3F09000DFE09000F8
:100D0400F4F07B017A0079F380067B017A0079F1B3
:100D14009001507402F07F091233A8020EBB9000B8
:100D2400DBE0F46003020EBB9000D5F0A37464F022
:100D34007FC07E1280357F007E0412352DEFF47063
:100D440003020EBB7F007E0412352D7E009000D579
:100D5400EEF0A3EFF07005C2CD020EBB9000D5E01B
:100D6400FEA3E0FF7C007D3012195D12345AD2CD0F
:100D7400020EBBD20FC2A1123613900127E4F0A3D6
:100D840004F090011EE0FFFD900127E0FAA3E0FBD0
:100D9400C39DEA94004003020EBB9000DB75F00390
:100DA400EB121BDDEA75F003A42583F583E0FE90C6
:100DB4000120E06E6003020EAA9000DC75F003EBE4
:100DC400121BDDEA75F003A42583F583E0FE900190
:100DD40021E06E6003020EAA9000DD75F003EB12B1
:100DE4001BDDEA75F003A42583F583E0FD9000D5AF
:100DF400E4F0A3EDF0EF24FFFFE434FFFEEB6F70AB
:100E040002EA6E703E9000D5E0FEA3E0FF4E70044F
:100E1400C2CD800C7C007D3012195D12345AD2CDC3
:100E24007B017A0079F19001507402F07F0912334A
:100E3400A81236217B017A01792C9001507401F0BB
:100E4400FF80609000D5E0FEA3E0FF4E7004C2CDA9
:100E5400800C7C007D3012195D12345AD2CD900181
:100E640027E0FEA3E0FF9000DE75F003121BDDEE29
:100E740075F003A42583F583E09000F3F09000DF80
:100E840075F003EF121BDDEE75F003A42583F583E3
:100E9400E09000F4F07B017A0079F3900150740241
:100EA400F07F091233A8900128E004F07006900145
:100EB40027E004F0020D867B017A01792C90015021
:0A0EC4007401F0FF1233A875AF01AE
:100ECE000201A9C2C27B017A0079CA7D05123406DD
:100EDE00900124E0FF7E0012348143C11090012462
:100EEE00E0FF7E0012348143C1102012030201A9DB
:100EFE00C212200C030201A990017EE064B76003C8
:0C0F0E000201A9A3E0640860030201A92D
:100F1A0090012CF090011FF090011FE0C394067419
:100F2A008094805021E0FF2480F582E43401F58327
:100F3A00E0FE740B2FF582E43401F583EEF09001A4
:100F4A001FE004F080D27B017A01790B9001507482
:100F5A0007F07F021233A8E4900127F0A3F0900172
:100F6A0027E0FEA3E0FFC39414EE94005025123547
:100F7A002D900127E0FCA3E024DBF58274003CF508
:100F8A0083EFF0900128E004F070D3900127E00489
:100F9A00F080CB90012CE0FF24DBF582E43400F5ED
:100FAA0083E0F4600890012CE004F080E6EF75F02D
:100FBA00038490011EF07F007E0412352D90012DCE
:100FCA00EFF07F007E0412352DEFF4600302126108
:100FDA00D20F9000DBE0F4700DD2CD9000D5F0A3D3
:100FEA007464F00212AD9000DBE0F470030212BEEA
:100FFA007B017A0079D39001507402F07F03123397
:10100A00229000D3E0547FF0A3E0543FFFF0900118
:10101A001EE075F003A424D9F582E43400F583E0D8
:10102A00FEEFD39E50229000D4E06E705590011EC0
:10103A00E075F003A424D8F582E43400F583E0FFD8
:10104A009000D3E0C39F403A90011EE075F003A4DC
:10105A0024DAF582E43400F583E0FF7E009000D5BF
:10106A00EEF0A3EFF07004C2CD80149000D5E0FE3C
:10107A00A3E0FF7C007D3012195D12345AD2CD02F2
:10108A0012AD9000DCE0FF9000D4E0FED39F501731
:10109A00EE6F60030212BE9000DBE0FF9000D3E027
:1010AA00C39F50030212BE90011EE075F003A424F0
:1010BA00D9F582E43400F583E0FF9000D4E0FEC362
:1010CA009F4025EE6F60030212BE90011EE075F08C
:1010DA0003A424D8F582E43400F583E0FF9000D31A
:0810EA00E0C39F40030212BEA7
:1010F200E4900127F0A3F090011EE024FFFFE43406
:10110200FFFE900127E0FCA3E0FDC39FEC9E40039D
:101112000212BE9000DC75F003ED121BDDEC75F0DF
:1011220003A42583F583E0FF9000D4E0FED39F5013
:101132002DEE6F6003021250900127E0FEA3E090B3
:1011420000DB75F003121BDDEE75F003A42583F5B9
:1011520083E0FF9000D3E0C39F500302125090013E
:1011620027E0FEA3E09000DF75F003121BDDEE75B1
:10117200F003A42583F583E0FF9000D4E0FEC39F33
:10118200402DEE6F6003021250900127E0FEA3E0B3
:101192009000DE75F003121BDDEE75F003A42583CB
:1011A200F583E0FF9000D3E0C39F4003021250900A
:1011B2000127E0FEA3E09000DD75F003121BDDEED7
:1011C20075F003A42583F583E0FF7E009000D5EE41
:1011D200F0A3EFF0D39400EE9400401E9000D5E00F
:1011E200FEA3E0FFD39464EE9400500E7C007D30A9
:1011F20012195D12345AD2CD800C9000D5E07002E3
:10120200A3E07002C2CD900127E0FEA3E0FF9000B0
:10121200DE75F003121BDDEE75F003A42583F58362
:10122200E090012EF09000DF75F003EF121BDDEE6F
:1012320075F003A42583F583E090012FF07B017AFA
:1012420001792E9001507402F07F091233A89001A7
:0F12520028E004F07006900127E004F00210F984
:101261007F007E0412352DC374809480404F7F002F
:101271007E0412352DD3EF946474809480503ED255
:101281000B90012DE0FF700AC2CD9000D5F0A3F0C4
:10129100801AEF75F030A4FFAEF012345AD2CD901F
:1012A100012DE0FF9000D5E4F0A3EFF07B017A007F
:1012B10079F19001507402F07F091233A8D20AC269
:1012C1000CD209E4900127F0A3F090017FE0240300
:1012D100FFE433FE900127E0FCA3E0FDC39FEC9EF9
:1012E100501C747E2DF58274013CF583E4F090016D
:1012F10028E004F070D4900127E004F080CC75AFB1
:0113010001EA
:031302000201A93C
:1034C300D29312327CD3EF9480EE94015003C293D3
:0C34D30022D3EF9480EE94014002D293CB
:0134DF0022CA
:10252600900141EDF0900140EFF0D20BC37480941E
:10253600804065D3EF946474809480505B7F007E06
:1025460004123586900140E0FF7004C2CD800DEF85
:1025560075F030A4FFAEF012345AD2CD900141E0AE
:10256600600B7B017A0179767D041234067B017A51
:102576000079F19001507402F07F091233A890019E
:1025860040E0FD7F007E04123514900140E0FF908C
:1025960000D5E4F0A3EFF022900140E0F4600302DE
:0225A60028A368
:1025A8009001427402F07F007E041235867B017A26
:1025B8000079D39001507402F07F03123322900007
:1025C800D3E0547FF0A3E0543FF09000DBE0F470D8
:1025D8000302285F90011EE075F003A424D9F58258
:1025E800E43400F583E0FF9000D4E0FED39F501F51
:1025F800EE6F707790011EE075F003A424D8F58281
:10260800E43400F583E0FF9000D3E0C39F405C9082
:10261800011EE075F003A424DAF582E43400F583A2
:10262800E0FF7E009000D5EEF0A3EFF07004C2CD7D
:1026380080149000D5E0FEA3E0FF7C007D301219E5
:102648005D12345AD2CD900141E0600B7B017A01D2
:1026580079767D041234067B017A0079F190015075
:102668007402F07F091233A80228939000DCE0FF7F
:102678009000D4E0FED39F5017EE6F6003022893BA
:102688009000DBE0FF9000D3E0C39F500302289343
:1026980090011EE075F003A424D9F582E43400F516
:1026A80083E0FF9000D4E0FEC39F4025EE6F6003F7
:1026B80002289390011EE075F003A424D8F582E463
:1026C8003400F583E0FF9000D3E0C39F4003022865
:0126D800936E
:1026D900E4900145F0A3F090011EE024FFFFE434EB
:1026E900FFFE900145E0FCA3E0FDC39FEE6480F886
:1026F900EC64809840030228939000DC75F003EDA8
:10270900121BDDEC75F003A42583F583E0FF90002F
:10271900D4E0FED39F502DEE6F600302284E900146
:1027290045E0FEA3E09000DB75F003121BDDEE75BA
:10273900F003A42583F583E0FF9000D3E0C39F5005
:102749000302284E900145E0FEA3E09000DF75F0FA
:1027590003121BDDEE75F003A42583F583E0FF90DA
:1027690000D4E0FEC39F402DEE6F600302284E9017
:102779000145E0FEA3E09000DE75F003121BDDEEDB
:1027890075F003A42583F583E0FF9000D3E0C39F90
:10279900400302284E900145E0FEA3E09000DD755C
:1027A900F003121BDDEE75F003A42583F583E0FF2A
:1027B9007E009000D5EEF0A3EFF0D39400EE9400E4
:1027C900401E9000D5E0FEA3E0FFD39464EE940090
:1027D900500E7C007D3012195D12345AD2CD800C16
:1027E9009000D5E07002A3E07002C2CD900141E0F3
:1027F900600B7B017A0179767D04123406900145DC
:10280900E0FEA3E0FF9000DE75F003121BDDEE751C
:10281900F003A42583F583E0900143F09000DF7570
:10282900F003EF121BDDEE75F003A42583F583E0B9
:10283900900144F07B017A0179439001507402F0D0
:102849007F091233A8900146E004F0700690014513
:06285900E004F00226E09D
:10285F007FC07E1212345AD2CD9000D5E4F0A3740B
:10286F0064F07B017A0079F19001507402F07F09D6
:10287F001233A8900141E0600B7B017A0179767DDC
:10288F00041234067B017A0179429001507401F0F1
:04289F00FF1233A849
:0128A3002212
:0720C8007B017A01792CF085
:1020CF00900141EBF0A3EAF0A3E9F0900140EFF0AB
:1020DF0075F00384E5F06003022514E0D3941474C3
:0820EF008094804003022514D7
:1020F700E4900147F0A3F0A37402F07B017A007922
:10210700D3900150F07F031233229000D3E0547F25
:10211700F0A3E0543FF0E4FFFE1235867F007E0215
:10212700123586E4900145F0A3F0900140E0FD9060
:102137000145E0FEA3E0FFC39DEE94005026900109
:1021470041E0FBA3E0FAA3E0F98F828E8312191E08
:10215700FD123514900146E004F070CE900145E081
:1021670004F080C6E4900145F0A3F0900140E0FF41
:10217700900145E0FCA3E0FDC39FEC9400502DE4E3
:102187002DFFEC3402FE900141E0FBA3E0FAA3E04F
:10219700F98D828C8312191EFD123514900146E0C9
:1021A70004F070C7900145E004F080BFE490014758
:1021B700F0A3F0900140E0FD900147E0FEA3E0FFAF
:1021C700C39D7480F8EE648098502512352D9001D8
:1021D70047E0FCA3E024DBF58274003CF583EFF0D5
:1021E700900148E004F070CB900147E004F080C311
:1021F700900140E075F0038490011EF0C2A275F0D3
:1022070003A424D9F582E43400F583E0FF9000D4D9
:10221700E0FED39F5025EE6F60030222CD90011E92
:10222700E075F003A424D8F582E43400F583E0FFD9
:102237009000D3E0C39F50030222CD7F007E04129B
:10224700352DEFF47039D20F90011EE075F003A41D
:1022570024DAF582E43400F583E0FD9000D5E4F05C
:10226700A3EDF07004C2CD80359000D5E0FEA3E069
:10227700FF7C007D3012195D12345AD2CD801F7F4A
:10228700007E0412352DC37480948040227F007E27
:102297000412352DD3EF94647480948050117B0120
:1022A7007A0079F19001507402F07F091233A890F7
:1022B7000144E070030225047B017A0179767D04ED
:1022C7001234060225049000DCE0FF9000D4E0FE03
:1022D700D39F5017EE6F60030225049000DBE0FFE9
:1022E7009000D3E0C39F500302250490011EE075C0
:1022F700F003A424D9F582E43400F583E0FF9000CD
:10230700D4E0FEC39F4025EE6F60030225049001D1
:102317001EE075F003A424D8F582E43400F583E0C9
:0C232700FF9000D3E0C39F400302250498
:10233300E4900147F0A3F090011EE024FFFFE43492
:10234300FFFE900147E0FCA3E0FDC39FEE6480F82D
:10235300EC64809840030225049000DC75F003EDE3
:10236300121BDDEC75F003A42583F583E0FF9000D9
:10237300D4E0FED39F502DEE6F60030224F390014F
:1023830047E0FEA3E09000DB75F003121BDDEE7562
:10239300F003A42583F583E0FF9000D3E0C39F50AF
:1023A300030224F3900147E0FEA3E09000DF75F001
:1023B30003121BDDEE75F003A42583F583E0FF9084
:1023C30000D4E0FEC39F402DEE6F60030224F39020
:1023D3000147E0FEA3E09000DE75F003121BDDEE83
:1023E30075F003A42583F583E0FF9000D3E0C39F3A
:1023F30040030224F37F007E0412352DEFF46003C3
:102403000224B2D20F900147E0FEA3E09000DD75F5
:10241300F003121BDDEE75F003A42583F583E0FFC3
:10242300FD9000D5E4F0A3EDF0D394007480948084
:102433004020D3EF94647480948050169000D5E0CC
:10244300FEA3E0FF7C007D3012195D12345AD2CD19
:10245300801E900147E0FEA3E09000DD75F00312BB
:102463001BDDEE75F003A42583F583E07002C2CD76
:10247300900147E0FEA3E0FF9000DE75F003121B1E
:10248300DDEE75F003A42583F583E090014AF09017
:1024930000DF75F003EF121BDDEE75F003A4258357
:1024A300F583E090014BF07B017A01794A80257F27
:1024B300007E0412352DC37480948040227F007EF9
:1024C3000412352DD3EF94647480948050117B01F2
:1024D3007A0079F19001507402F07F091233A890C9
:1024E3000144E0600B7B017A0179767D04123406A6
:1024F300900148E004F07006900147E004F00223E5
:012503003A9D
:102504007B017A0179499001507401F0FF0233A8EC
:10251400900144E0600B7B017A01797A7D041234E6
:0225240006228D
:072E8C007B017A01792CF0B3
:102E9300900141EBF0A3EAF0A3E9F0900140EFF0D9
:102EA3009001457402F0EF75F00384E5F0600302CE
:102EB3002F4D900140E0C39414748094804003022A
:022EC3002F4D91
:102EC5007F007E02123586E4900146F0A3F0900162
:102ED50040E0FF900146E0FCA3E0FDC39FEC9400B9
:102EE500502DE42DFFEC3402FE900141E0FBA3E000
:102EF500FAA3E0F98D828C8312191EFD1235149008
:102F05000147E004F070C7900146E004F080BFE49B
:102F1500FFFE12352DEFF470217B017A0079F190D7
:102F250001507402F07F091233A87B017A017945BB
:102F35009001507401F0FF1233A8900144E060192C
:062F45007B017A017976A0
:102F4B00800C900144E0600B7B017A01797A7D045F
:032F5B0012340627
:012F5E002250
:101305000214A7E86480F8E933E83360110460F05B
:10131500ED33EC337009E8FCE9FDEAFEEBFF22044E
:1013250060DED3EB9FEA9EE99DE8C2E78CF0C2F749
:1013350095F0400CE8CCF8E9CDF9EACEFAEBCFFB15
:1013450012147285D0F05804700320D5B3E80470E8
:10135500075002B2D50214B192D5EC0460F7E4CC83
:10136500C0E0C398F8603B94186008400DD0E0FBDE
:10137500021489E4FBFAC9FC8028E830E406E4C9D4
:10138500FBE4CAFCE830E305E4C9CACBFCE8540732
:101395006010F8C3E913F9EA13FAEB13FBEC13FC3D
:1013A500D8F130F52FC3E49CFCEF9BFFEE9AFEEDE0
:1013B50099FDD0E0FBEF4E4D4C701222DB03021479
:1013C500AEEC2CFCEF33FFEE33FEED33FDED30E7F5
:1013D500EB021489EF2BFFEE3AFEED39FDD0E0FB71
:1013E50050130BBB00030214B1ED13FDEE13FEEF1A
:0813F50013FFEC13FC02148944
:1013FD0075F020800E75F010800575F0087D007E6B
:10140D00007F003392D530D503121B5AEC334010B8
:10141D00EF33FFEE33FEED33FDEC33FCD5F0ED2273
:0E142D00E5F0247EA2D513CC92E7CDCEFF22AF
:10143B00EDD2E7CD33EC3392D524814006E4FFFEA9
:10144B00FDFC22FCE4CFCECDCC24E0501174FF8008
:10145B00EDC3CC13CCCD13CDCE13CECF13CF0470A5
:07146B00F030D5DE021B5A30
:101C4500E5182443F582E43401F583E00518229074
:101C55000140300703900143E475F001121BE902CE
:101C650019052000E97F2ED2008018EF540F24902B
:101C7500D43440D4FF30040BEF24BFB41A00500312
:101C85002461FFE51960021519051CE51C700205A4
:101C95001B30070E900140E475F001121BE9EF02BD
:101CA500194B0235D47403D2078003E4C207F51833
:101CB500900140121C00E4F519F51BF51CE51960AF
:101CC500077F20121C8880F5751AFFC201C200C269
:101CD50002C203C205C206C208121C54FF700D30B1
:101CE50007057F00121C99AF1CAE1B22B4255FC2ED
:101CF500D5C204121C54FF24D0B40A00501A75F042
:101D05000A781930D50508B6FF0106C6A426F620BF
:101D1500D5047002D20380D924CFB41A00EF500441
:101D2500C2E5D204021F8BD20180C6D20080C0D288
:101D35000280BCD2D580BAD20580B47F20121C881F
:101D45002002077401B5190040F1121C45FF121C51
:101D550088021CC2D208D2068095121C45FB121CB3
:101D650045FA121C45F94A4B700679897A207BFFA2
:101D750020022EE519602A7E008E827583001219D5
:101D85001E60060EEE651A70F0C2D5EBC0E0EAC023
:101D9500E0E9C0E0EE121FECD0E0F9D0E0FAD0E0C7
:101DA500FB121905FF60AAEBC0E0EAC0E0E9C0E05C
:101DB500121C88D0E02401F9D0E03400FAD0E0FB11
:101DC500E51A0460DCD51AD98087D20280A2121FD9
:101DD500CE60F7E51A700104121706A91A600DE521
:101DE5001A600914F51A122076EF60F3EA30E7025B
:101DF500F404C3995079EAF4251A0430E701E404A0
:101E0500F51A800D121FCE60C1EA051A251A1217A0
:101E150006EA90016FF030E701E4251A04D51A04AB
:101E250020050114121FECE4C0E012207690016F2A
:101E3500E0601320E70714F0121C70802204F0D034
:101E4500E014C0E07F00121C70E51A6007121C67E1
:101E5500151A800B300503121C67D0E0021CC2D096
:101E6500E00480C4121FCE609EE51A041217069086
:101E7500016FEAF0E51A2005026001042404121F2F
:011E8500EC70
:101E860074FF04C0E0122076121C70E51A200502C9
:101E96006003121C67D0E0B51AE87F45121C7A90E1
:101EA600016FE07F2B30E7047F2DF404C0E0121CA5
:101EB60088D0E075F00A84C0F0121C71D0E0121CC4
:101EC60071021CC2791080027908C206C208800815
:101ED600D2D5790A8004790AC2D5E51A047002F5CA
:101EE6001AE4FAFDFEFF121C45FC7B0820011312C2
:101EF6001C45FD7B1030000A121C45FE121C45FFD6
:101F06007B20EC3382D592D55013C3E43000069F74
:101F1600FFE49EFEE42001039DFDE49CFCE4CBF877
:101F2600C201EC700CCFCECDCCE824F8F870F3806B
:101F360017C3EF33FFEE33FEED33FDEC33FCEB332B
:101F4600FB994002FB0FD8E9EB300105F8D0E0C45D
:101F560048B201C0E00AEC4D4E4F78207B0070C2BB
:101F6600EAB51A0040BCC0E0121FEED0F0D0E02067
:101F76000104C4C0E0C4B201C0F0121C71D0F0D597
:101F8600F0EB021CC2121C091D5F531ECA581D30FD
:101F96004C1D2C421ECE4F1ED6441ED6491D45430F
:101FA6001EDC551E09461E69451DD34720A9501D36
:101FB600342D1D382E1D5B2B1D3C231D59202092D0
:101FC6002A1CF44800001D53E51AB4FF03751A06CF
:101FD600121C45FC121C45FD121C45FE121C45FF39
:101FE600900168021743790AA2D520031430050927
:101FF600B910020404B9080104A2D5200602500152
:10200600042002689202B519005034C0E07F2030E7
:1020160003197F30A20272067205500F122045C2C4
:1020260002C206C205C2087F30800F300503E9C030
:10203600E0121C88300503D0E0F9D0E0B519CC30A9
:1020460005177F30B9100C121C887F583004077FA3
:10205600788003B90803121C883002057F2D021C04
:10206600887F202008F87F2B2006F322920280CF5B
:102076007F00B40700500B2468F582E43401F58331
:10208600E0FF22286E756C6C2900D201121C4530C7
:1020960001F8C201781930D50108F6021CF42D505A
:1020A600434958121C452403B405004001E490201E
:1020B600A493121C79743A121C79D203751904027E
:0220C6001ECA30
:102F5F000214A722EDA2E7D2E7F9EC3340F260F3B7
:102F6F00B4FF08ED547F70E80214B1F82481C2E079
:102F7F00C0E0F40428FAC313FCED92E7FD90015171
:102F8F00121BA0EEA2E7E9BA7F02C313340094002C
:102F9F00FA75F091A4E5F013F494FE8AF0A433E5EA
:102FAF00F033248CD313FDE492E7FE7F007C3F7552
:102FBF008302ECC0E0F8EDC0E0F9EEC0E0FAEFC03C
:102FCF00E0FB8583F0900151121B6885F083121589
:102FDF00DFD0E0FBD0E0FAD0E0F9D0E0F812130C2C
:102FEF00ED6480FD30E7011CD583C7ED33CC33F89A
:0C2FFF00D0E0A2E71328C313CC13FD227E
:102BFD00900151121BA0E4FFFE7D807C3F9001519E
:102C0D00E0F8A3E0F9A3E0FAA3E0FB12167C70064E
:102C1D00900151022D57900151E0FCA3E0FDA3E07E
:102C2D00FEA3E0FF1214BCFBA3E0FCA3E0FDA3E0B8
:102C3D00FEA3E0FF1214BCFFB40108E4FFFE7D808B
:102C4D007C3F22EF64046029EB64046024EBB40143
:102C5D0030E4FFFEFDFC900155E0F8A3E0F9A3E0A0
:102C6D00FAA3E0FB12167C60084006E4FFFEFDFCB3
:102C7D0022900155121BACFFFFFFFF900155022D55
:102C8D0057E4900159F0A3F0FFFEFDFC900151E0D7
:102C9D00F8A3E0F9A3E0FAA3E0FB12167C505F90D5
:102CAD000155E0FCA3E0FDA3E0FEA3E0FF12143B01
:102CBD00900159EEF0A3EFF0FDCCEECCEC12140226
:102CCD00C8ECC8C9EDC9CAEECACBEFCB900155E02F
:102CDD00FCA3E0FDA3E0FEA3E0FF121308E4FBFA62
:102CED00F9F812167C708A900151E0FCA3E0FDA367
:102CFD00E0FEA3E0FF1216F5900151121BA090010A
:102D0D0051E0FCA3E0FDA3E0FEA3E0FF122D9790A0
:102D1D000155E0F8A3E0F9A3E0FAA3E0FB1214D605
:102D2D00123043900155121BA090015AE030E0176C
:102D3D00900155E0FCA3E0FDA3E0FEA3E0FF121619
:102D4D00F5900155121BA0900155E0FCA3E0FDA3E9
:062D5D00E0FEA3E0FF22EE
:10147200E9D2E7C933E833F892D5EDD2E7CD33ECC0
:0714820033FC5002B2D52239
:10148900EC30E7100FBF000C0EBE00080DBD0004C4
:101499000BEB6014A2D5EB13FCED92E7FD2274FF70
:1014A900FCFDFEFF22E480F8A2D574FF13FC7D80C9
:0314B900E480EFDD
:1014BC00ED33EC33601004700FED547F7005740243
:0A14CC0092E0227404220422E422BC
:1014D600EC4D6011E8497017ED33EC3304600DE410
:1014E600FCFFFEFD22E933E8330470F80214A7126C
:1014F600147258046009E4CC24815006285009026D
:1015060014B12840030214AEC0E0EB4A7044B9801F
:1015160006D0E0FB02149DEF4E701CBD8008EBFF69
:10152600EAFEE9FD80EBE98DF0A4FEE5F00215BFC9
:10153600E9CDF9EAFEEBFFEF89F0A4FCE5F0CE89F0
:10154600F0A42EFFE435F0CD89F0A42DFEE435F0AD
:101556008067EF4E7005BD80D780C3EF8BF0A4ACDB
:10156600F0EE8BF0A42CFCE435F0F8EF8AF0A42C16
:10157600E5F038FCE433CB8DF0A42CFCE5F03BF829
:10158600EE8AF0A42CFCE5F038F8E433CF89F0A419
:101596002CFCE5F038CF3400CE89F0A42FFFE5F01F
:1015A6003EFEE433C98DF0A42EFEE5F039CD8AF077
:1015B600A42FFFE5F03EFEE43DFD33D0E0FB5007EF
:1015C6000BBB000F0214B1EC2CFCEF33FFEE33FE25
:0615D600ED33FD02148953
:1015DC000214B1EC5D046005E8590470030214A711
:1015EC00121472580460F6EC4860F2EC7004FDFEC4
:1015FC00FF22C860DB2481C85009C39860025006E2
:10160C000214AE9850CAF582E9294B4A7005AB8298
:10161C0002149D75F0007C1A7880C3EF9BEE9AED56
:10162C0099400DC3EF9BFFEE9AFEED99FDE842F059
:10163C00DC23ACF0D0E0FFD0E0FED0E0FDAB8220AC
:10164C00E7101BEB60BAEC2CFCEF33FFEE33FEED36
:10165C0033FD021489E803F830E705C0F075F0009B
:10166C00EF2FFFEE33FEED33FD40B830E7C280AA1A
:10167C0074F8CC6480CCC86480C8F58204604FC315
:10168C00EB9FF5F0EA9E42F0E99D42F0E89C45F0B4
:10169C00603C501DE5825FFFE582D313CB5BCBF43E
:1016AC002B5582FB50280ABA002409B90020088067
:1016BC001DE5825BFBE582D313CF5FCFF4C3132F01
:1016CC005582FF50090EBE00050DBD00010CC3EB89
:1016DC009FF5F0EA9E42F0E99D42F0E89C45F060EF
:0916EC0007CC4820E701B3EC2211
:1016F500ED33EC33600A047003BD8004ECB2E7FC03
:0117050022C1
:10170600F920E73624F950037907E4F42402FBE5CF
:1017160082158270021583DBF6E024FB501BE9601C
:1017260014E4F0E582158270021583E004F0B40A31
:0D17360008E4F0D9EE7401F00A22C2D522B9
:10174300ED33EC3392D5FA602AB4FF33EDC2E77B75
:10175300FF60067A177968E4227A17797120D50435
:101763007A17796C224E614E002B494E46002D4963
:101773004E4600E47A08F0A3DAFC7B00740722C02B
:1017830083C082ECC0E0EDC0E0EEC0E0EFC0E0EA71
:1017930075F010A4CAABF075F04DA42BFBE435F043
:1017A300FCEA2410FAEB34C5FBEC34D9FCEDC2E7B8
:1017B300FF75F056A4F42411C5F0F434C58FF0A4DA
:1017C3002AE5F03BE43CF020E714121878D0E0FF60
:1017D300D0E0FED0E0FDD0E0FC1215DF8014F4046D
:1017E300121878D0E0FFD0E0FED0E0FDD0E0FC128C
:1017F30014D6D082D083E0FAEDD2E7CD33EC332494
:1018030082FBE4C3CF33CFCE33CECD33CD33DBF343
:101813007B0775F00A846004F0A31B0AE5F0F0A3CC
:101823008FF0740AA4FFACF08EF0740AA42CFEAC03
:10183300F050010C8DF0740AA42CFDE435F0F0A3F4
:05184300DBDE7407224A
:10300B0033DA929E35B16011377FE5FE3921848921
:10301B003AAEC3FF3C1D955B3D6358473E75FDF0D3
:10302B003F3172183F800000C2D50214B10214A7C1
:10303B00BD80FA50F30214AEED33EC330460F17B38
:10304B003B7AAA79B8783F1214D6ED33EC3392D58C
:10305B00247B5011A2D570DB500BED44802404501F
:10306B0004A2D580CEEFFBEEFAEDF9ECF812143B8F
:10307B00EFF582F404FC12140712130CC08290308B
:10308B000B74091218C7ED33CC33D0F092D525F061
:0A309B00A2D57001C313CC13FD226F
:102D63003E9248DA3ECCCCCD3F2AAAAB40000000CD
:102D73003F8000003F9837F03FB504F33FD744FC52
:102D83003E3172173EB172173F0515913EDE5BD996
:102D9300D2008002C200EDD2E7F8CD33EC330470E9
:102DA3000BBD800592D50214B10214A740FBD314C6
:102DB30060F2F5F07C3FEE7A00C39496C8948B40A2
:102DC300230AC89469C8941A401A0AC89468C89414
:102DD3001F40110AC8945AC89425400805F07A0088
:102DE300CDC2E7CDC0F090015B121BA0EA2323C044
:102DF300E02473F582E4342DF583121B9012130C37
:102E0300ECC0E0EDC0E0EEC0E0EFC0E0121B749058
:102E1300015B121B84121308D0E0FBD0E0FAD0E070
:102E2300F9D0E0B2E7F81215DF90015B121BA09016
:102E33002D6374031218B890015B121B841214D60D
:102E4300D0E0600F247FF582E4342DF583121B90CC
:102E530012130C90015B121BA0D0E0C3947FFDE41E
:102E63009400FC1214027B187A727931783F1214A1
:102E7300D690015B121B8412130C30000B7BD97AA2
:092E83005B79DE783E1214D622C0
:101848003F8000004120000042C80000447A0000A8
:10185800461C400047C35000497424004B1896802A
:101868004CBEBC205A0E1BCA6753C21C749DC5AE21
:10187800FB60065407601C23231218A6EB5438603B
:10188800091218921218A11214D6ECF8EDF9EEFA12
:10189800EFCB22EB1218A180F1543803241C9018C6
:1018A80048FE93FC0EEE93FD0EEE930ECE93FF22B0
:1018B800C0E0EFFBEEFAEDF9ECF81214D6D0E0F543
:1018C800F0EFFBEEFAEDF9ECF8121B74A3A3A3A357
:1018D800E8C0E0E9C0E0EAC0E0EBC0E0C0F0121404
:1018E800D6121B90A3A3A3A312130CD0F0D0E0FB35
:0D18F800D0E0FAD0E0F9D0E0F8D5F0D4222D
:030000000230A526
:0C30A500787FE4F6D8FD7581220230EC43
:10190500BB010689828A83E0225002E722BBFE02E0
:09191500E32289828A83E4932213
:10191E00BB010CE58229F582E5833AF583E022507E
:10192E0006E92582F8E622BBFE06E92582F8E222C8
:0D193E00E58229F582E5833AF583E49322E2
:10194B00BB010689828A83F0225002F722BBFE017B
:02195B00F32275
:10195D00EF8DF0A4A8F0CF8CF0A428CE8DF0A42E9E
:02196D00FE2258
:10196F00BC000BBE0029EF8DF084FFADF022E4CC5C
:10197F00F875F008EF2FFFEE33FEEC33FCEE9DEC25
:10198F00984005FCEE9DFE0FD5F0E9E4CEFD22ED6B
:10199F00F8F5F0EE8420D21CFEADF075F008EF2FB5
:1019AF00FFED33FD4007985006D5F0F222C398FDA6
:0519BF000FD5F0EA2243
:1019C400A3F8E0C5F025F0F0E582158270021583D6
:0619D400E0C838F0E82233
:1019DA00BB0110E58229F582E5833AF583E0F5F04B
:1019EA00A3E0225009E92582F886F008E622BBFE28
:1019FA000AE92582F8E2F5F008E222E5832AF5836E
:081A0A00E993F5F0A3E9932232
:101A1200BB010DC58229C582C5833AC583021C2F2D
:101A22005011C58229F808E5F026F618F5F0E5828E
:101A320036F622BBFE11C58229F808E225F0F5F040
:101A4200F218E23582F222F8E58229F582E5832A4C
:0D1A5200F58374019325F0F5F0E49338223C
:101A5F00F8BB0111E58229F582E5833AF583E8F0B9
:101A6F00E5F0A3F0225009E92582C8F608A6F02276
:0D1A7F00BBFE09E92582C8F2E5F008F2225D
:101A8C0075F008758200EF2FFFEE33FECD33CDCC11
:101A9C0033CCC58233C5829BED9AEC99E582984094
:101AAC000CF582EE9BFEED9AFDEC99FC0FD5F0D671
:101ABC00E4CEFBE4CDFAE4CCF9A88222B800C1B99B
:101ACC000059BA002DEC8BF084CFCECDFCE5F0CBD9
:101ADC00F97818EF2FFFEE33FEED33FDEC33FCEB12
:101AEC0033FB10D703994004EB99FB0FD8E5E4F9CD
:101AFC00FA227818EF2FFFEE33FEED33FDEC33FCBA
:101B0C00C933C910D7059BE99A4007EC9BFCE99AAD
:101B1C00F90FD8E0E4C9FAE4CCFB2275F010EF2FF2
:101B2C00FFEE33FEED33FDCC33CCC833C810D707F2
:101B3C009BEC9AE899400AED9BFDEC9AFCE899F82D
:0E1B4C000FD5F0DAE4CDFBE4CCFAE4C8F922C0
:0E1B5A00C3E49FFFE49EFEE49DFDE49CFC229C
:0C1B6800E0FCA3E0FDA3E0FEA3E0FF22F0
:101B7400E493FC740193FD740293FE740393FF22B7
:0C1B8400E0F8A3E0F9A3E0FAA3E0FB22E4
:101B9000E493F8740193F9740293FA740393FB22AB
:0C1BA000ECF0A3EDF0A3EEF0A3EFF022B8
:101BAC00A8828583F0D083D082121BC3121BC31270
:101BBC001BC3121BC3E473E493A3C583C5F0C58395
:101BCC00C8C582C8F0A3C583C5F0C583C8C582C883
:011BDC0022E6
:0C1BDD00A42582F582E5F03583F5832213
:101BE900F8E0FBA3A3E0F925F0F0E5821582700285
:071BF9001583E0FA38F02229
:091C0000EBF0A3EAF0A3E9F022E5
:101C0900D083D082F8E4937012740193700DA3A36A
:101C190093F8740193F5828883E47374029368607E
:061C2900EFA3A3A380DF7E
:1030B100020046E493A3F8E493A34003F68001F2EF
:1030C10008DFF48029E493A3F85407240CC8C33320
:1030D100C4540F4420C8834004F456800146F6DFEF
:1030E100E4800B0102040810204080903368E47EE4
:1030F100019360BCA3FF543F30E509541FFEE493E4
:10310100A360010ECF54C025E060A840B8E493A3AA
:10311100FAE493A3F8E493A3C8C582C8CAC583CAD5
:10312100F0A3C8C582C8CAC583CADFE9DEE780BE8D
:0133A7000025
:101C2F00C5F0F8A3E028F0C5F0F8E5821582700240
:061C3F001583E038F022DD
:00000001FF
